{
  "_format": "hh-sol-artifact-1",
  "contractName": "HaikoinToken",
  "sourceName": "contracts/HaikoinToken.sol",
  "abi": [
    {
      "inputs": [],
      "stateMutability": "nonpayable",
      "type": "constructor"
    },
    {
      "anonymous": false,
      "inputs": [
        {
          "indexed": true,
          "internalType": "address",
          "name": "owner",
          "type": "address"
        },
        {
          "indexed": true,
          "internalType": "address",
          "name": "approved",
          "type": "address"
        },
        {
          "indexed": true,
          "internalType": "uint256",
          "name": "tokenId",
          "type": "uint256"
        }
      ],
      "name": "Approval",
      "type": "event"
    },
    {
      "anonymous": false,
      "inputs": [
        {
          "indexed": true,
          "internalType": "address",
          "name": "owner",
          "type": "address"
        },
        {
          "indexed": true,
          "internalType": "address",
          "name": "operator",
          "type": "address"
        },
        {
          "indexed": false,
          "internalType": "bool",
          "name": "approved",
          "type": "bool"
        }
      ],
      "name": "ApprovalForAll",
      "type": "event"
    },
    {
      "anonymous": false,
      "inputs": [
        {
          "indexed": true,
          "internalType": "address",
          "name": "previousOwner",
          "type": "address"
        },
        {
          "indexed": true,
          "internalType": "address",
          "name": "newOwner",
          "type": "address"
        }
      ],
      "name": "OwnershipTransferred",
      "type": "event"
    },
    {
      "anonymous": false,
      "inputs": [
        {
          "indexed": true,
          "internalType": "address",
          "name": "from",
          "type": "address"
        },
        {
          "indexed": true,
          "internalType": "address",
          "name": "to",
          "type": "address"
        },
        {
          "indexed": true,
          "internalType": "uint256",
          "name": "tokenId",
          "type": "uint256"
        }
      ],
      "name": "Transfer",
      "type": "event"
    },
    {
      "inputs": [
        {
          "internalType": "address",
          "name": "to",
          "type": "address"
        },
        {
          "internalType": "uint256",
          "name": "tokenId",
          "type": "uint256"
        }
      ],
      "name": "approve",
      "outputs": [],
      "stateMutability": "nonpayable",
      "type": "function"
    },
    {
      "inputs": [
        {
          "internalType": "address",
          "name": "owner",
          "type": "address"
        }
      ],
      "name": "balanceOf",
      "outputs": [
        {
          "internalType": "uint256",
          "name": "",
          "type": "uint256"
        }
      ],
      "stateMutability": "view",
      "type": "function"
    },
    {
      "inputs": [
        {
          "internalType": "uint256",
          "name": "tokenId",
          "type": "uint256"
        }
      ],
      "name": "burn",
      "outputs": [],
      "stateMutability": "nonpayable",
      "type": "function"
    },
    {
      "inputs": [
        {
          "internalType": "address",
          "name": "owner",
          "type": "address"
        }
      ],
      "name": "fetchOwnedTokenIds",
      "outputs": [
        {
          "internalType": "uint256[]",
          "name": "",
          "type": "uint256[]"
        }
      ],
      "stateMutability": "view",
      "type": "function"
    },
    {
      "inputs": [
        {
          "internalType": "uint256",
          "name": "tokenId",
          "type": "uint256"
        }
      ],
      "name": "getApproved",
      "outputs": [
        {
          "internalType": "address",
          "name": "",
          "type": "address"
        }
      ],
      "stateMutability": "view",
      "type": "function"
    },
    {
      "inputs": [
        {
          "internalType": "address",
          "name": "owner",
          "type": "address"
        },
        {
          "internalType": "address",
          "name": "operator",
          "type": "address"
        }
      ],
      "name": "isApprovedForAll",
      "outputs": [
        {
          "internalType": "bool",
          "name": "",
          "type": "bool"
        }
      ],
      "stateMutability": "view",
      "type": "function"
    },
    {
      "inputs": [
        {
          "internalType": "string",
          "name": "ipfsURI",
          "type": "string"
        }
      ],
      "name": "mint",
      "outputs": [],
      "stateMutability": "nonpayable",
      "type": "function"
    },
    {
      "inputs": [],
      "name": "name",
      "outputs": [
        {
          "internalType": "string",
          "name": "",
          "type": "string"
        }
      ],
      "stateMutability": "view",
      "type": "function"
    },
    {
      "inputs": [],
      "name": "owner",
      "outputs": [
        {
          "internalType": "address",
          "name": "",
          "type": "address"
        }
      ],
      "stateMutability": "view",
      "type": "function"
    },
    {
      "inputs": [
        {
          "internalType": "uint256",
          "name": "tokenId",
          "type": "uint256"
        }
      ],
      "name": "ownerOf",
      "outputs": [
        {
          "internalType": "address",
          "name": "",
          "type": "address"
        }
      ],
      "stateMutability": "view",
      "type": "function"
    },
    {
      "inputs": [],
      "name": "renounceOwnership",
      "outputs": [],
      "stateMutability": "nonpayable",
      "type": "function"
    },
    {
      "inputs": [
        {
          "internalType": "address",
          "name": "from",
          "type": "address"
        },
        {
          "internalType": "address",
          "name": "to",
          "type": "address"
        },
        {
          "internalType": "uint256",
          "name": "tokenId",
          "type": "uint256"
        }
      ],
      "name": "safeTransferFrom",
      "outputs": [],
      "stateMutability": "nonpayable",
      "type": "function"
    },
    {
      "inputs": [
        {
          "internalType": "address",
          "name": "from",
          "type": "address"
        },
        {
          "internalType": "address",
          "name": "to",
          "type": "address"
        },
        {
          "internalType": "uint256",
          "name": "tokenId",
          "type": "uint256"
        },
        {
          "internalType": "bytes",
          "name": "_data",
          "type": "bytes"
        }
      ],
      "name": "safeTransferFrom",
      "outputs": [],
      "stateMutability": "nonpayable",
      "type": "function"
    },
    {
      "inputs": [
        {
          "internalType": "address",
          "name": "operator",
          "type": "address"
        },
        {
          "internalType": "bool",
          "name": "approved",
          "type": "bool"
        }
      ],
      "name": "setApprovalForAll",
      "outputs": [],
      "stateMutability": "nonpayable",
      "type": "function"
    },
    {
      "inputs": [
        {
          "internalType": "bytes4",
          "name": "interfaceId",
          "type": "bytes4"
        }
      ],
      "name": "supportsInterface",
      "outputs": [
        {
          "internalType": "bool",
          "name": "",
          "type": "bool"
        }
      ],
      "stateMutability": "view",
      "type": "function"
    },
    {
      "inputs": [],
      "name": "symbol",
      "outputs": [
        {
          "internalType": "string",
          "name": "",
          "type": "string"
        }
      ],
      "stateMutability": "view",
      "type": "function"
    },
    {
      "inputs": [
        {
          "internalType": "uint256",
          "name": "index",
          "type": "uint256"
        }
      ],
      "name": "tokenByIndex",
      "outputs": [
        {
          "internalType": "uint256",
          "name": "",
          "type": "uint256"
        }
      ],
      "stateMutability": "view",
      "type": "function"
    },
    {
      "inputs": [
        {
          "internalType": "address",
          "name": "owner",
          "type": "address"
        },
        {
          "internalType": "uint256",
          "name": "index",
          "type": "uint256"
        }
      ],
      "name": "tokenOfOwnerByIndex",
      "outputs": [
        {
          "internalType": "uint256",
          "name": "",
          "type": "uint256"
        }
      ],
      "stateMutability": "view",
      "type": "function"
    },
    {
      "inputs": [
        {
          "internalType": "uint256",
          "name": "tokenId",
          "type": "uint256"
        }
      ],
      "name": "tokenURI",
      "outputs": [
        {
          "internalType": "string",
          "name": "",
          "type": "string"
        }
      ],
      "stateMutability": "view",
      "type": "function"
    },
    {
      "inputs": [],
      "name": "totalSupply",
      "outputs": [
        {
          "internalType": "uint256",
          "name": "",
          "type": "uint256"
        }
      ],
      "stateMutability": "view",
      "type": "function"
    },
    {
      "inputs": [
        {
          "internalType": "address",
          "name": "from",
          "type": "address"
        },
        {
          "internalType": "address",
          "name": "to",
          "type": "address"
        },
        {
          "internalType": "uint256",
          "name": "tokenId",
          "type": "uint256"
        }
      ],
      "name": "transfer",
      "outputs": [],
      "stateMutability": "nonpayable",
      "type": "function"
    },
    {
      "inputs": [
        {
          "internalType": "address",
          "name": "from",
          "type": "address"
        },
        {
          "internalType": "address",
          "name": "to",
          "type": "address"
        },
        {
          "internalType": "uint256",
          "name": "tokenId",
          "type": "uint256"
        }
      ],
      "name": "transferFrom",
      "outputs": [],
      "stateMutability": "nonpayable",
      "type": "function"
    },
    {
      "inputs": [
        {
          "internalType": "address",
          "name": "newOwner",
          "type": "address"
        }
      ],
      "name": "transferOwnership",
      "outputs": [],
      "stateMutability": "nonpayable",
      "type": "function"
    }
  ],
  "bytecode": "0x60806040523480156200001157600080fd5b5060408051808201825260088152674861696b6f696e7360c01b6020808301918252835180850190945260048452634841494b60e01b9084015281519192916200005e91600091620000ed565b50805162000074906001906020840190620000ed565b505050620000916200008b6200009760201b60201c565b6200009b565b620001d0565b3390565b600b80546001600160a01b038381166001600160a01b0319831681179093556040519116919082907f8be0079c531659141344cd1fd0a4f28419497f9722a3daafe3b4186f6b6457e090600090a35050565b828054620000fb9062000193565b90600052602060002090601f0160209004810192826200011f57600085556200016a565b82601f106200013a57805160ff19168380011785556200016a565b828001600101855582156200016a579182015b828111156200016a5782518255916020019190600101906200014d565b50620001789291506200017c565b5090565b5b808211156200017857600081556001016200017d565b600181811c90821680620001a857607f821691505b60208210811415620001ca57634e487b7160e01b600052602260045260246000fd5b50919050565b61204680620001e06000396000f3fe608060405234801561001057600080fd5b506004361061014d5760003560e01c80636352211e116100c3578063b88d4fde1161007c578063b88d4fde146102ba578063beabacc8146102cd578063c87b56dd146102e0578063d85d3d27146102f3578063e985e9c514610306578063f2fde38b1461034257600080fd5b80636352211e1461026057806370a0823114610273578063715018a6146102865780638da5cb5b1461028e57806395d89b411461029f578063a22cb465146102a757600080fd5b806323b872dd1161011557806323b872dd146101e157806327cf3a99146101f45780632f745c591461021457806342842e0e1461022757806342966c681461023a5780634f6ccce71461024d57600080fd5b806301ffc9a71461015257806306fdde031461017a578063081812fc1461018f578063095ea7b3146101ba57806318160ddd146101cf575b600080fd5b610165610160366004611cb7565b610355565b60405190151581526020015b60405180910390f35b610182610366565b6040516101719190611e29565b6101a261019d366004611d35565b6103f8565b6040516001600160a01b039091168152602001610171565b6101cd6101c8366004611c8e565b610485565b005b6008545b604051908152602001610171565b6101cd6101ef366004611ba0565b61059b565b610207610202366004611b54565b6105cc565b6040516101719190611de5565b6101d3610222366004611c8e565b61068a565b6101cd610235366004611ba0565b610720565b6101cd610248366004611d35565b61073b565b6101d361025b366004611d35565b610747565b6101a261026e366004611d35565b6107e8565b6101d3610281366004611b54565b61085f565b6101cd6108e6565b600b546001600160a01b03166101a2565b61018261094c565b6101cd6102b5366004611c54565b61095b565b6101cd6102c8366004611bdb565b61096a565b6101cd6102db366004611ba0565b6109a2565b6101826102ee366004611d35565b610a16565b6101cd610301366004611cef565b610a21565b610165610314366004611b6e565b6001600160a01b03918216600090815260056020908152604080832093909416825291909152205460ff1690565b6101cd610350366004611b54565b610a50565b600061036082610b18565b92915050565b60606000805461037590611f4e565b80601f01602080910402602001604051908101604052809291908181526020018280546103a190611f4e565b80156103ee5780601f106103c3576101008083540402835291602001916103ee565b820191906000526020600020905b8154815290600101906020018083116103d157829003601f168201915b5050505050905090565b600061040382610b3d565b6104695760405162461bcd60e51b815260206004820152602c60248201527f4552433732313a20617070726f76656420717565727920666f72206e6f6e657860448201526b34b9ba32b73a103a37b5b2b760a11b60648201526084015b60405180910390fd5b506000908152600460205260409020546001600160a01b031690565b6000610490826107e8565b9050806001600160a01b0316836001600160a01b031614156104fe5760405162461bcd60e51b815260206004820152602160248201527f4552433732313a20617070726f76616c20746f2063757272656e74206f776e656044820152603960f91b6064820152608401610460565b336001600160a01b038216148061051a575061051a8133610314565b61058c5760405162461bcd60e51b815260206004820152603860248201527f4552433732313a20617070726f76652063616c6c6572206973206e6f74206f7760448201527f6e6572206e6f7220617070726f76656420666f7220616c6c00000000000000006064820152608401610460565b6105968383610b5a565b505050565b6105a53382610bc8565b6105c15760405162461bcd60e51b815260040161046090611e8e565b610596838383610cb2565b606060006105d98361085f565b905060008167ffffffffffffffff81111561060457634e487b7160e01b600052604160045260246000fd5b60405190808252806020026020018201604052801561062d578160200160208202803683370190505b50905060005b8281101561068257610645858261068a565b82828151811061066557634e487b7160e01b600052603260045260246000fd5b60209081029190910101528061067a81611f89565b915050610633565b509392505050565b60006106958361085f565b82106106f75760405162461bcd60e51b815260206004820152602b60248201527f455243373231456e756d657261626c653a206f776e657220696e646578206f7560448201526a74206f6620626f756e647360a81b6064820152608401610460565b506001600160a01b03919091166000908152600660209081526040808320938352929052205490565b6105968383836040518060200160405280600081525061096a565b61074481610e5d565b50565b600061075260085490565b82106107b55760405162461bcd60e51b815260206004820152602c60248201527f455243373231456e756d657261626c653a20676c6f62616c20696e646578206f60448201526b7574206f6620626f756e647360a01b6064820152608401610460565b600882815481106107d657634e487b7160e01b600052603260045260246000fd5b90600052602060002001549050919050565b6000818152600260205260408120546001600160a01b0316806103605760405162461bcd60e51b815260206004820152602960248201527f4552433732313a206f776e657220717565727920666f72206e6f6e657869737460448201526832b73a103a37b5b2b760b91b6064820152608401610460565b60006001600160a01b0382166108ca5760405162461bcd60e51b815260206004820152602a60248201527f4552433732313a2062616c616e636520717565727920666f7220746865207a65604482015269726f206164647265737360b01b6064820152608401610460565b506001600160a01b031660009081526003602052604090205490565b600b546001600160a01b031633146109405760405162461bcd60e51b815260206004820181905260248201527f4f776e61626c653a2063616c6c6572206973206e6f7420746865206f776e65726044820152606401610460565b61094a6000610e66565b565b60606001805461037590611f4e565b610966338383610eb8565b5050565b6109743383610bc8565b6109905760405162461bcd60e51b815260040161046090611e8e565b61099c84848484610f87565b50505050565b826001600160a01b03166109b5826107e8565b6001600160a01b031614610a0b5760405162461bcd60e51b815260206004820181905260248201527f46726f6d2061646472657373206d75737420626520746f6b656e206f776e65726044820152606401610460565b610596838383610720565b606061036082610fba565b610a2f600c80546001019055565b6000610a3a600c5490565b9050610a463382611129565b6109668183611143565b600b546001600160a01b03163314610aaa5760405162461bcd60e51b815260206004820181905260248201527f4f776e61626c653a2063616c6c6572206973206e6f7420746865206f776e65726044820152606401610460565b6001600160a01b038116610b0f5760405162461bcd60e51b815260206004820152602660248201527f4f776e61626c653a206e6577206f776e657220697320746865207a65726f206160448201526564647265737360d01b6064820152608401610460565b61074481610e66565b60006001600160e01b0319821663780e9d6360e01b14806103605750610360826111ce565b6000908152600260205260409020546001600160a01b0316151590565b600081815260046020526040902080546001600160a01b0319166001600160a01b0384169081179091558190610b8f826107e8565b6001600160a01b03167f8c5be1e5ebec7d5bd14f71427d1e84f3dd0314c0f7b2291e5b200ac8c7c3b92560405160405180910390a45050565b6000610bd382610b3d565b610c345760405162461bcd60e51b815260206004820152602c60248201527f4552433732313a206f70657261746f7220717565727920666f72206e6f6e657860448201526b34b9ba32b73a103a37b5b2b760a11b6064820152608401610460565b6000610c3f836107e8565b9050806001600160a01b0316846001600160a01b03161480610c7a5750836001600160a01b0316610c6f846103f8565b6001600160a01b0316145b80610caa57506001600160a01b0380821660009081526005602090815260408083209388168352929052205460ff165b949350505050565b826001600160a01b0316610cc5826107e8565b6001600160a01b031614610d2d5760405162461bcd60e51b815260206004820152602960248201527f4552433732313a207472616e73666572206f6620746f6b656e2074686174206960448201526839903737ba1037bbb760b91b6064820152608401610460565b6001600160a01b038216610d8f5760405162461bcd60e51b8152602060048201526024808201527f4552433732313a207472616e7366657220746f20746865207a65726f206164646044820152637265737360e01b6064820152608401610460565b610d9a83838361121e565b610da5600082610b5a565b6001600160a01b0383166000908152600360205260408120805460019290610dce908490611f0b565b90915550506001600160a01b0382166000908152600360205260408120805460019290610dfc908490611edf565b909155505060008181526002602052604080822080546001600160a01b0319166001600160a01b0386811691821790925591518493918716917fddf252ad1be2c89b69c2b068fc378daa952ba7f163c4a11628f55a4df523b3ef91a4505050565b61074481611229565b600b80546001600160a01b038381166001600160a01b0319831681179093556040519116919082907f8be0079c531659141344cd1fd0a4f28419497f9722a3daafe3b4186f6b6457e090600090a35050565b816001600160a01b0316836001600160a01b03161415610f1a5760405162461bcd60e51b815260206004820152601960248201527f4552433732313a20617070726f766520746f2063616c6c6572000000000000006044820152606401610460565b6001600160a01b03838116600081815260056020908152604080832094871680845294825291829020805460ff191686151590811790915591519182527f17307eab39ab6107e8899845ad3d59bd9653f200f220920489ca2b5937696c31910160405180910390a3505050565b610f92848484610cb2565b610f9e84848484611269565b61099c5760405162461bcd60e51b815260040161046090611e3c565b6060610fc582610b3d565b61102b5760405162461bcd60e51b815260206004820152603160248201527f45524337323155524953746f726167653a2055524920717565727920666f72206044820152703737b732bc34b9ba32b73a103a37b5b2b760791b6064820152608401610460565b6000828152600a60205260408120805461104490611f4e565b80601f016020809104026020016040519081016040528092919081815260200182805461107090611f4e565b80156110bd5780601f10611092576101008083540402835291602001916110bd565b820191906000526020600020905b8154815290600101906020018083116110a057829003601f168201915b5050505050905060006110db60408051602081019091526000815290565b90508051600014156110ee575092915050565b815115611120578082604051602001611108929190611d79565b60405160208183030381529060405292505050919050565b610caa84611376565b61096682826040518060200160405280600081525061144e565b61114c82610b3d565b6111af5760405162461bcd60e51b815260206004820152602e60248201527f45524337323155524953746f726167653a2055524920736574206f66206e6f6e60448201526d32bc34b9ba32b73a103a37b5b2b760911b6064820152608401610460565b6000828152600a602090815260409091208251610596928401906119f3565b60006001600160e01b031982166380ac58cd60e01b14806111ff57506001600160e01b03198216635b5e139f60e01b145b8061036057506301ffc9a760e01b6001600160e01b0319831614610360565b610596838383611481565b61123281611539565b6000818152600a60205260409020805461124b90611f4e565b159050610744576000818152600a6020526040812061074491611a77565b60006001600160a01b0384163b1561136b57604051630a85bd0160e11b81526001600160a01b0385169063150b7a02906112ad903390899088908890600401611da8565b602060405180830381600087803b1580156112c757600080fd5b505af19250505080156112f7575060408051601f3d908101601f191682019092526112f491810190611cd3565b60015b611351573d808015611325576040519150601f19603f3d011682016040523d82523d6000602084013e61132a565b606091505b5080516113495760405162461bcd60e51b815260040161046090611e3c565b805181602001fd5b6001600160e01b031916630a85bd0160e11b149050610caa565b506001949350505050565b606061138182610b3d565b6113e55760405162461bcd60e51b815260206004820152602f60248201527f4552433732314d657461646174613a2055524920717565727920666f72206e6f60448201526e3732bc34b9ba32b73a103a37b5b2b760891b6064820152608401610460565b60006113fc60408051602081019091526000815290565b9050600081511161141c5760405180602001604052806000815250611447565b80611426846115e0565b604051602001611437929190611d79565b6040516020818303038152906040525b9392505050565b61145883836116fa565b6114656000848484611269565b6105965760405162461bcd60e51b815260040161046090611e3c565b6001600160a01b0383166114dc576114d781600880546000838152600960205260408120829055600182018355919091527ff3f7a9fe364faab93b216da50a3214154f22a0a2b415b23a84c8169e8b636ee30155565b6114ff565b816001600160a01b0316836001600160a01b0316146114ff576114ff8382611839565b6001600160a01b03821661151657610596816118d6565b826001600160a01b0316826001600160a01b0316146105965761059682826119af565b6000611544826107e8565b90506115528160008461121e565b61155d600083610b5a565b6001600160a01b0381166000908152600360205260408120805460019290611586908490611f0b565b909155505060008281526002602052604080822080546001600160a01b0319169055518391906001600160a01b038416907fddf252ad1be2c89b69c2b068fc378daa952ba7f163c4a11628f55a4df523b3ef908390a45050565b6060816116045750506040805180820190915260018152600360fc1b602082015290565b8160005b811561162e578061161881611f89565b91506116279050600a83611ef7565b9150611608565b60008167ffffffffffffffff81111561165757634e487b7160e01b600052604160045260246000fd5b6040519080825280601f01601f191660200182016040528015611681576020820181803683370190505b5090505b8415610caa57611696600183611f0b565b91506116a3600a86611fa4565b6116ae906030611edf565b60f81b8183815181106116d157634e487b7160e01b600052603260045260246000fd5b60200101906001600160f81b031916908160001a9053506116f3600a86611ef7565b9450611685565b6001600160a01b0382166117505760405162461bcd60e51b815260206004820181905260248201527f4552433732313a206d696e7420746f20746865207a65726f20616464726573736044820152606401610460565b61175981610b3d565b156117a65760405162461bcd60e51b815260206004820152601c60248201527f4552433732313a20746f6b656e20616c7265616479206d696e746564000000006044820152606401610460565b6117b26000838361121e565b6001600160a01b03821660009081526003602052604081208054600192906117db908490611edf565b909155505060008181526002602052604080822080546001600160a01b0319166001600160a01b03861690811790915590518392907fddf252ad1be2c89b69c2b068fc378daa952ba7f163c4a11628f55a4df523b3ef908290a45050565b600060016118468461085f565b6118509190611f0b565b6000838152600760205260409020549091508082146118a3576001600160a01b03841660009081526006602090815260408083208584528252808320548484528184208190558352600790915290208190555b5060009182526007602090815260408084208490556001600160a01b039094168352600681528383209183525290812055565b6008546000906118e890600190611f0b565b6000838152600960205260408120546008805493945090928490811061191e57634e487b7160e01b600052603260045260246000fd5b90600052602060002001549050806008838154811061194d57634e487b7160e01b600052603260045260246000fd5b600091825260208083209091019290925582815260099091526040808220849055858252812055600880548061199357634e487b7160e01b600052603160045260246000fd5b6001900381819060005260206000200160009055905550505050565b60006119ba8361085f565b6001600160a01b039093166000908152600660209081526040808320868452825280832085905593825260079052919091209190915550565b8280546119ff90611f4e565b90600052602060002090601f016020900481019282611a215760008555611a67565b82601f10611a3a57805160ff1916838001178555611a67565b82800160010185558215611a67579182015b82811115611a67578251825591602001919060010190611a4c565b50611a73929150611aad565b5090565b508054611a8390611f4e565b6000825580601f10611a93575050565b601f01602090049060005260206000209081019061074491905b5b80821115611a735760008155600101611aae565b600067ffffffffffffffff80841115611add57611add611fe4565b604051601f8501601f19908116603f01168101908282118183101715611b0557611b05611fe4565b81604052809350858152868686011115611b1e57600080fd5b858560208301376000602087830101525050509392505050565b80356001600160a01b0381168114611b4f57600080fd5b919050565b600060208284031215611b65578081fd5b61144782611b38565b60008060408385031215611b80578081fd5b611b8983611b38565b9150611b9760208401611b38565b90509250929050565b600080600060608486031215611bb4578081fd5b611bbd84611b38565b9250611bcb60208501611b38565b9150604084013590509250925092565b60008060008060808587031215611bf0578081fd5b611bf985611b38565b9350611c0760208601611b38565b925060408501359150606085013567ffffffffffffffff811115611c29578182fd5b8501601f81018713611c39578182fd5b611c4887823560208401611ac2565b91505092959194509250565b60008060408385031215611c66578182fd5b611c6f83611b38565b915060208301358015158114611c83578182fd5b809150509250929050565b60008060408385031215611ca0578182fd5b611ca983611b38565b946020939093013593505050565b600060208284031215611cc8578081fd5b813561144781611ffa565b600060208284031215611ce4578081fd5b815161144781611ffa565b600060208284031215611d00578081fd5b813567ffffffffffffffff811115611d16578182fd5b8201601f81018413611d26578182fd5b610caa84823560208401611ac2565b600060208284031215611d46578081fd5b5035919050565b60008151808452611d65816020860160208601611f22565b601f01601f19169290920160200192915050565b60008351611d8b818460208801611f22565b835190830190611d9f818360208801611f22565b01949350505050565b6001600160a01b0385811682528416602082015260408101839052608060608201819052600090611ddb90830184611d4d565b9695505050505050565b6020808252825182820181905260009190848201906040850190845b81811015611e1d57835183529284019291840191600101611e01565b50909695505050505050565b6020815260006114476020830184611d4d565b60208082526032908201527f4552433732313a207472616e7366657220746f206e6f6e20455243373231526560408201527131b2b4bb32b91034b6b83632b6b2b73a32b960711b606082015260800190565b60208082526031908201527f4552433732313a207472616e736665722063616c6c6572206973206e6f74206f6040820152701ddb995c881b9bdc88185c1c1c9bdd9959607a1b606082015260800190565b60008219821115611ef257611ef2611fb8565b500190565b600082611f0657611f06611fce565b500490565b600082821015611f1d57611f1d611fb8565b500390565b60005b83811015611f3d578181015183820152602001611f25565b8381111561099c5750506000910152565b600181811c90821680611f6257607f821691505b60208210811415611f8357634e487b7160e01b600052602260045260246000fd5b50919050565b6000600019821415611f9d57611f9d611fb8565b5060010190565b600082611fb357611fb3611fce565b500690565b634e487b7160e01b600052601160045260246000fd5b634e487b7160e01b600052601260045260246000fd5b634e487b7160e01b600052604160045260246000fd5b6001600160e01b03198116811461074457600080fdfea26469706673582212200e5cb3d8c8dc0c6e0ab268c110a240113553685b644a43450d4cda7c07dab55064736f6c63430008040033",
  "linkReferences": {},
  "deployedLinkReferences": {}
}