{
  "_format": "hh-sol-artifact-1",
  "contractName": "HaikoinToken",
  "sourceName": "contracts/HaikoinToken.sol",
  "abi": [
    {
      "inputs": [],
      "stateMutability": "nonpayable",
      "type": "constructor"
    },
    {
      "anonymous": false,
      "inputs": [
        {
          "indexed": true,
          "internalType": "address",
          "name": "owner",
          "type": "address"
        },
        {
          "indexed": true,
          "internalType": "address",
          "name": "approved",
          "type": "address"
        },
        {
          "indexed": true,
          "internalType": "uint256",
          "name": "tokenId",
          "type": "uint256"
        }
      ],
      "name": "Approval",
      "type": "event"
    },
    {
      "anonymous": false,
      "inputs": [
        {
          "indexed": true,
          "internalType": "address",
          "name": "owner",
          "type": "address"
        },
        {
          "indexed": true,
          "internalType": "address",
          "name": "operator",
          "type": "address"
        },
        {
          "indexed": false,
          "internalType": "bool",
          "name": "approved",
          "type": "bool"
        }
      ],
      "name": "ApprovalForAll",
      "type": "event"
    },
    {
      "anonymous": false,
      "inputs": [
        {
          "indexed": true,
          "internalType": "address",
          "name": "previousOwner",
          "type": "address"
        },
        {
          "indexed": true,
          "internalType": "address",
          "name": "newOwner",
          "type": "address"
        }
      ],
      "name": "OwnershipTransferred",
      "type": "event"
    },
    {
      "anonymous": false,
      "inputs": [
        {
          "indexed": true,
          "internalType": "address",
          "name": "from",
          "type": "address"
        },
        {
          "indexed": true,
          "internalType": "address",
          "name": "to",
          "type": "address"
        },
        {
          "indexed": true,
          "internalType": "uint256",
          "name": "tokenId",
          "type": "uint256"
        }
      ],
      "name": "Transfer",
      "type": "event"
    },
    {
      "inputs": [
        {
          "internalType": "address",
          "name": "to",
          "type": "address"
        },
        {
          "internalType": "uint256",
          "name": "tokenId",
          "type": "uint256"
        }
      ],
      "name": "approve",
      "outputs": [],
      "stateMutability": "nonpayable",
      "type": "function"
    },
    {
      "inputs": [
        {
          "internalType": "address",
          "name": "owner",
          "type": "address"
        }
      ],
      "name": "balanceOf",
      "outputs": [
        {
          "internalType": "uint256",
          "name": "",
          "type": "uint256"
        }
      ],
      "stateMutability": "view",
      "type": "function"
    },
    {
      "inputs": [
        {
          "internalType": "uint256",
          "name": "tokenId",
          "type": "uint256"
        }
      ],
      "name": "burn",
      "outputs": [],
      "stateMutability": "nonpayable",
      "type": "function"
    },
    {
      "inputs": [
        {
          "internalType": "address",
          "name": "owner",
          "type": "address"
        }
      ],
      "name": "fetchOwnedTokenIds",
      "outputs": [
        {
          "internalType": "uint256[]",
          "name": "",
          "type": "uint256[]"
        }
      ],
      "stateMutability": "view",
      "type": "function"
    },
    {
      "inputs": [
        {
          "internalType": "uint256",
          "name": "tokenId",
          "type": "uint256"
        }
      ],
      "name": "fetchTokenURI",
      "outputs": [
        {
          "internalType": "string",
          "name": "",
          "type": "string"
        }
      ],
      "stateMutability": "view",
      "type": "function"
    },
    {
      "inputs": [
        {
          "internalType": "uint256",
          "name": "tokenId",
          "type": "uint256"
        }
      ],
      "name": "getApproved",
      "outputs": [
        {
          "internalType": "address",
          "name": "",
          "type": "address"
        }
      ],
      "stateMutability": "view",
      "type": "function"
    },
    {
      "inputs": [
        {
          "internalType": "address",
          "name": "owner",
          "type": "address"
        },
        {
          "internalType": "address",
          "name": "operator",
          "type": "address"
        }
      ],
      "name": "isApprovedForAll",
      "outputs": [
        {
          "internalType": "bool",
          "name": "",
          "type": "bool"
        }
      ],
      "stateMutability": "view",
      "type": "function"
    },
    {
      "inputs": [
        {
          "internalType": "string",
          "name": "ipfsURI",
          "type": "string"
        }
      ],
      "name": "mint",
      "outputs": [],
      "stateMutability": "nonpayable",
      "type": "function"
    },
    {
      "inputs": [],
      "name": "name",
      "outputs": [
        {
          "internalType": "string",
          "name": "",
          "type": "string"
        }
      ],
      "stateMutability": "view",
      "type": "function"
    },
    {
      "inputs": [],
      "name": "owner",
      "outputs": [
        {
          "internalType": "address",
          "name": "",
          "type": "address"
        }
      ],
      "stateMutability": "view",
      "type": "function"
    },
    {
      "inputs": [
        {
          "internalType": "uint256",
          "name": "tokenId",
          "type": "uint256"
        }
      ],
      "name": "ownerOf",
      "outputs": [
        {
          "internalType": "address",
          "name": "",
          "type": "address"
        }
      ],
      "stateMutability": "view",
      "type": "function"
    },
    {
      "inputs": [],
      "name": "renounceOwnership",
      "outputs": [],
      "stateMutability": "nonpayable",
      "type": "function"
    },
    {
      "inputs": [
        {
          "internalType": "address",
          "name": "from",
          "type": "address"
        },
        {
          "internalType": "address",
          "name": "to",
          "type": "address"
        },
        {
          "internalType": "uint256",
          "name": "tokenId",
          "type": "uint256"
        }
      ],
      "name": "safeTransferFrom",
      "outputs": [],
      "stateMutability": "nonpayable",
      "type": "function"
    },
    {
      "inputs": [
        {
          "internalType": "address",
          "name": "from",
          "type": "address"
        },
        {
          "internalType": "address",
          "name": "to",
          "type": "address"
        },
        {
          "internalType": "uint256",
          "name": "tokenId",
          "type": "uint256"
        },
        {
          "internalType": "bytes",
          "name": "_data",
          "type": "bytes"
        }
      ],
      "name": "safeTransferFrom",
      "outputs": [],
      "stateMutability": "nonpayable",
      "type": "function"
    },
    {
      "inputs": [
        {
          "internalType": "address",
          "name": "operator",
          "type": "address"
        },
        {
          "internalType": "bool",
          "name": "approved",
          "type": "bool"
        }
      ],
      "name": "setApprovalForAll",
      "outputs": [],
      "stateMutability": "nonpayable",
      "type": "function"
    },
    {
      "inputs": [
        {
          "internalType": "bytes4",
          "name": "interfaceId",
          "type": "bytes4"
        }
      ],
      "name": "supportsInterface",
      "outputs": [
        {
          "internalType": "bool",
          "name": "",
          "type": "bool"
        }
      ],
      "stateMutability": "view",
      "type": "function"
    },
    {
      "inputs": [],
      "name": "symbol",
      "outputs": [
        {
          "internalType": "string",
          "name": "",
          "type": "string"
        }
      ],
      "stateMutability": "view",
      "type": "function"
    },
    {
      "inputs": [
        {
          "internalType": "uint256",
          "name": "index",
          "type": "uint256"
        }
      ],
      "name": "tokenByIndex",
      "outputs": [
        {
          "internalType": "uint256",
          "name": "",
          "type": "uint256"
        }
      ],
      "stateMutability": "view",
      "type": "function"
    },
    {
      "inputs": [
        {
          "internalType": "address",
          "name": "owner",
          "type": "address"
        },
        {
          "internalType": "uint256",
          "name": "index",
          "type": "uint256"
        }
      ],
      "name": "tokenOfOwnerByIndex",
      "outputs": [
        {
          "internalType": "uint256",
          "name": "",
          "type": "uint256"
        }
      ],
      "stateMutability": "view",
      "type": "function"
    },
    {
      "inputs": [
        {
          "internalType": "uint256",
          "name": "tokenId",
          "type": "uint256"
        }
      ],
      "name": "tokenURI",
      "outputs": [
        {
          "internalType": "string",
          "name": "",
          "type": "string"
        }
      ],
      "stateMutability": "view",
      "type": "function"
    },
    {
      "inputs": [],
      "name": "totalSupply",
      "outputs": [
        {
          "internalType": "uint256",
          "name": "",
          "type": "uint256"
        }
      ],
      "stateMutability": "view",
      "type": "function"
    },
    {
      "inputs": [
        {
          "internalType": "address",
          "name": "from",
          "type": "address"
        },
        {
          "internalType": "address",
          "name": "to",
          "type": "address"
        },
        {
          "internalType": "uint256",
          "name": "tokenId",
          "type": "uint256"
        }
      ],
      "name": "transfer",
      "outputs": [],
      "stateMutability": "nonpayable",
      "type": "function"
    },
    {
      "inputs": [
        {
          "internalType": "address",
          "name": "from",
          "type": "address"
        },
        {
          "internalType": "address",
          "name": "to",
          "type": "address"
        },
        {
          "internalType": "uint256",
          "name": "tokenId",
          "type": "uint256"
        }
      ],
      "name": "transferFrom",
      "outputs": [],
      "stateMutability": "nonpayable",
      "type": "function"
    },
    {
      "inputs": [
        {
          "internalType": "address",
          "name": "newOwner",
          "type": "address"
        }
      ],
      "name": "transferOwnership",
      "outputs": [],
      "stateMutability": "nonpayable",
      "type": "function"
    }
  ],
  "bytecode": "0x60806040523480156200001157600080fd5b5060408051808201825260088152674861696b6f696e7360c01b6020808301918252835180850190945260048452634841494b60e01b9084015281519192916200005e91600091620000ed565b50805162000074906001906020840190620000ed565b505050620000916200008b6200009760201b60201c565b6200009b565b620001d0565b3390565b600b80546001600160a01b038381166001600160a01b0319831681179093556040519116919082907f8be0079c531659141344cd1fd0a4f28419497f9722a3daafe3b4186f6b6457e090600090a35050565b828054620000fb9062000193565b90600052602060002090601f0160209004810192826200011f57600085556200016a565b82601f106200013a57805160ff19168380011785556200016a565b828001600101855582156200016a579182015b828111156200016a5782518255916020019190600101906200014d565b50620001789291506200017c565b5090565b5b808211156200017857600081556001016200017d565b600181811c90821680620001a857607f821691505b60208210811415620001ca57634e487b7160e01b600052602260045260246000fd5b50919050565b61207780620001e06000396000f3fe608060405234801561001057600080fd5b50600436106101585760003560e01c806370a08231116100c3578063b88d4fde1161007c578063b88d4fde146102d8578063beabacc8146102eb578063c87b56dd146102fe578063d85d3d2714610311578063e985e9c514610324578063f2fde38b1461036057600080fd5b806370a082311461027e578063715018a6146102915780638da5cb5b146102995780638e2f5ca0146102aa57806395d89b41146102bd578063a22cb465146102c557600080fd5b806327cf3a991161011557806327cf3a99146101ff5780632f745c591461021f57806342842e0e1461023257806342966c68146102455780634f6ccce7146102585780636352211e1461026b57600080fd5b806301ffc9a71461015d57806306fdde0314610185578063081812fc1461019a578063095ea7b3146101c557806318160ddd146101da57806323b872dd146101ec575b600080fd5b61017061016b366004611ce8565b610373565b60405190151581526020015b60405180910390f35b61018d610384565b60405161017c9190611e5a565b6101ad6101a8366004611d66565b610416565b6040516001600160a01b03909116815260200161017c565b6101d86101d3366004611cbf565b6104a3565b005b6008545b60405190815260200161017c565b6101d86101fa366004611bd1565b6105b9565b61021261020d366004611b85565b6105ea565b60405161017c9190611e16565b6101de61022d366004611cbf565b6106a8565b6101d8610240366004611bd1565b61073e565b6101d8610253366004611d66565b610759565b6101de610266366004611d66565b610765565b6101ad610279366004611d66565b610806565b6101de61028c366004611b85565b61087d565b6101d8610904565b600b546001600160a01b03166101ad565b61018d6102b8366004611d66565b61096a565b61018d61097e565b6101d86102d3366004611c85565b61098d565b6101d86102e6366004611c0c565b61099c565b6101d86102f9366004611bd1565b6109d4565b61018d61030c366004611d66565b610a48565b6101d861031f366004611d20565b610a53565b610170610332366004611b9f565b6001600160a01b03918216600090815260056020908152604080832093909416825291909152205460ff1690565b6101d861036e366004611b85565b610a82565b600061037e82610b4a565b92915050565b60606000805461039390611f7f565b80601f01602080910402602001604051908101604052809291908181526020018280546103bf90611f7f565b801561040c5780601f106103e15761010080835404028352916020019161040c565b820191906000526020600020905b8154815290600101906020018083116103ef57829003601f168201915b5050505050905090565b600061042182610b6f565b6104875760405162461bcd60e51b815260206004820152602c60248201527f4552433732313a20617070726f76656420717565727920666f72206e6f6e657860448201526b34b9ba32b73a103a37b5b2b760a11b60648201526084015b60405180910390fd5b506000908152600460205260409020546001600160a01b031690565b60006104ae82610806565b9050806001600160a01b0316836001600160a01b0316141561051c5760405162461bcd60e51b815260206004820152602160248201527f4552433732313a20617070726f76616c20746f2063757272656e74206f776e656044820152603960f91b606482015260840161047e565b336001600160a01b038216148061053857506105388133610332565b6105aa5760405162461bcd60e51b815260206004820152603860248201527f4552433732313a20617070726f76652063616c6c6572206973206e6f74206f7760448201527f6e6572206e6f7220617070726f76656420666f7220616c6c0000000000000000606482015260840161047e565b6105b48383610b8c565b505050565b6105c33382610bfa565b6105df5760405162461bcd60e51b815260040161047e90611ebf565b6105b4838383610ce4565b606060006105f78361087d565b905060008167ffffffffffffffff81111561062257634e487b7160e01b600052604160045260246000fd5b60405190808252806020026020018201604052801561064b578160200160208202803683370190505b50905060005b828110156106a05761066385826106a8565b82828151811061068357634e487b7160e01b600052603260045260246000fd5b60209081029190910101528061069881611fba565b915050610651565b509392505050565b60006106b38361087d565b82106107155760405162461bcd60e51b815260206004820152602b60248201527f455243373231456e756d657261626c653a206f776e657220696e646578206f7560448201526a74206f6620626f756e647360a81b606482015260840161047e565b506001600160a01b03919091166000908152600660209081526040808320938352929052205490565b6105b48383836040518060200160405280600081525061099c565b61076281610e8f565b50565b600061077060085490565b82106107d35760405162461bcd60e51b815260206004820152602c60248201527f455243373231456e756d657261626c653a20676c6f62616c20696e646578206f60448201526b7574206f6620626f756e647360a01b606482015260840161047e565b600882815481106107f457634e487b7160e01b600052603260045260246000fd5b90600052602060002001549050919050565b6000818152600260205260408120546001600160a01b03168061037e5760405162461bcd60e51b815260206004820152602960248201527f4552433732313a206f776e657220717565727920666f72206e6f6e657869737460448201526832b73a103a37b5b2b760b91b606482015260840161047e565b60006001600160a01b0382166108e85760405162461bcd60e51b815260206004820152602a60248201527f4552433732313a2062616c616e636520717565727920666f7220746865207a65604482015269726f206164647265737360b01b606482015260840161047e565b506001600160a01b031660009081526003602052604090205490565b600b546001600160a01b0316331461095e5760405162461bcd60e51b815260206004820181905260248201527f4f776e61626c653a2063616c6c6572206973206e6f7420746865206f776e6572604482015260640161047e565b6109686000610e98565b565b6060600061097783610a48565b9392505050565b60606001805461039390611f7f565b610998338383610eea565b5050565b6109a63383610bfa565b6109c25760405162461bcd60e51b815260040161047e90611ebf565b6109ce84848484610fb9565b50505050565b826001600160a01b03166109e782610806565b6001600160a01b031614610a3d5760405162461bcd60e51b815260206004820181905260248201527f46726f6d2061646472657373206d75737420626520746f6b656e206f776e6572604482015260640161047e565b6105b483838361073e565b606061037e82610fec565b610a61600c80546001019055565b6000610a6c600c5490565b9050610a78338261115b565b6109988183611175565b600b546001600160a01b03163314610adc5760405162461bcd60e51b815260206004820181905260248201527f4f776e61626c653a2063616c6c6572206973206e6f7420746865206f776e6572604482015260640161047e565b6001600160a01b038116610b415760405162461bcd60e51b815260206004820152602660248201527f4f776e61626c653a206e6577206f776e657220697320746865207a65726f206160448201526564647265737360d01b606482015260840161047e565b61076281610e98565b60006001600160e01b0319821663780e9d6360e01b148061037e575061037e82611200565b6000908152600260205260409020546001600160a01b0316151590565b600081815260046020526040902080546001600160a01b0319166001600160a01b0384169081179091558190610bc182610806565b6001600160a01b03167f8c5be1e5ebec7d5bd14f71427d1e84f3dd0314c0f7b2291e5b200ac8c7c3b92560405160405180910390a45050565b6000610c0582610b6f565b610c665760405162461bcd60e51b815260206004820152602c60248201527f4552433732313a206f70657261746f7220717565727920666f72206e6f6e657860448201526b34b9ba32b73a103a37b5b2b760a11b606482015260840161047e565b6000610c7183610806565b9050806001600160a01b0316846001600160a01b03161480610cac5750836001600160a01b0316610ca184610416565b6001600160a01b0316145b80610cdc57506001600160a01b0380821660009081526005602090815260408083209388168352929052205460ff165b949350505050565b826001600160a01b0316610cf782610806565b6001600160a01b031614610d5f5760405162461bcd60e51b815260206004820152602960248201527f4552433732313a207472616e73666572206f6620746f6b656e2074686174206960448201526839903737ba1037bbb760b91b606482015260840161047e565b6001600160a01b038216610dc15760405162461bcd60e51b8152602060048201526024808201527f4552433732313a207472616e7366657220746f20746865207a65726f206164646044820152637265737360e01b606482015260840161047e565b610dcc838383611250565b610dd7600082610b8c565b6001600160a01b0383166000908152600360205260408120805460019290610e00908490611f3c565b90915550506001600160a01b0382166000908152600360205260408120805460019290610e2e908490611f10565b909155505060008181526002602052604080822080546001600160a01b0319166001600160a01b0386811691821790925591518493918716917fddf252ad1be2c89b69c2b068fc378daa952ba7f163c4a11628f55a4df523b3ef91a4505050565b6107628161125b565b600b80546001600160a01b038381166001600160a01b0319831681179093556040519116919082907f8be0079c531659141344cd1fd0a4f28419497f9722a3daafe3b4186f6b6457e090600090a35050565b816001600160a01b0316836001600160a01b03161415610f4c5760405162461bcd60e51b815260206004820152601960248201527f4552433732313a20617070726f766520746f2063616c6c657200000000000000604482015260640161047e565b6001600160a01b03838116600081815260056020908152604080832094871680845294825291829020805460ff191686151590811790915591519182527f17307eab39ab6107e8899845ad3d59bd9653f200f220920489ca2b5937696c31910160405180910390a3505050565b610fc4848484610ce4565b610fd08484848461129b565b6109ce5760405162461bcd60e51b815260040161047e90611e6d565b6060610ff782610b6f565b61105d5760405162461bcd60e51b815260206004820152603160248201527f45524337323155524953746f726167653a2055524920717565727920666f72206044820152703737b732bc34b9ba32b73a103a37b5b2b760791b606482015260840161047e565b6000828152600a60205260408120805461107690611f7f565b80601f01602080910402602001604051908101604052809291908181526020018280546110a290611f7f565b80156110ef5780601f106110c4576101008083540402835291602001916110ef565b820191906000526020600020905b8154815290600101906020018083116110d257829003601f168201915b50505050509050600061110d60408051602081019091526000815290565b9050805160001415611120575092915050565b81511561115257808260405160200161113a929190611daa565b60405160208183030381529060405292505050919050565b610cdc846113a8565b61099882826040518060200160405280600081525061147f565b61117e82610b6f565b6111e15760405162461bcd60e51b815260206004820152602e60248201527f45524337323155524953746f726167653a2055524920736574206f66206e6f6e60448201526d32bc34b9ba32b73a103a37b5b2b760911b606482015260840161047e565b6000828152600a6020908152604090912082516105b492840190611a24565b60006001600160e01b031982166380ac58cd60e01b148061123157506001600160e01b03198216635b5e139f60e01b145b8061037e57506301ffc9a760e01b6001600160e01b031983161461037e565b6105b48383836114b2565b6112648161156a565b6000818152600a60205260409020805461127d90611f7f565b159050610762576000818152600a6020526040812061076291611aa8565b60006001600160a01b0384163b1561139d57604051630a85bd0160e11b81526001600160a01b0385169063150b7a02906112df903390899088908890600401611dd9565b602060405180830381600087803b1580156112f957600080fd5b505af1925050508015611329575060408051601f3d908101601f1916820190925261132691810190611d04565b60015b611383573d808015611357576040519150601f19603f3d011682016040523d82523d6000602084013e61135c565b606091505b50805161137b5760405162461bcd60e51b815260040161047e90611e6d565b805181602001fd5b6001600160e01b031916630a85bd0160e11b149050610cdc565b506001949350505050565b60606113b382610b6f565b6114175760405162461bcd60e51b815260206004820152602f60248201527f4552433732314d657461646174613a2055524920717565727920666f72206e6f60448201526e3732bc34b9ba32b73a103a37b5b2b760891b606482015260840161047e565b600061142e60408051602081019091526000815290565b9050600081511161144e5760405180602001604052806000815250610977565b8061145884611611565b604051602001611469929190611daa565b6040516020818303038152906040529392505050565b611489838361172b565b611496600084848461129b565b6105b45760405162461bcd60e51b815260040161047e90611e6d565b6001600160a01b03831661150d5761150881600880546000838152600960205260408120829055600182018355919091527ff3f7a9fe364faab93b216da50a3214154f22a0a2b415b23a84c8169e8b636ee30155565b611530565b816001600160a01b0316836001600160a01b03161461153057611530838261186a565b6001600160a01b038216611547576105b481611907565b826001600160a01b0316826001600160a01b0316146105b4576105b482826119e0565b600061157582610806565b905061158381600084611250565b61158e600083610b8c565b6001600160a01b03811660009081526003602052604081208054600192906115b7908490611f3c565b909155505060008281526002602052604080822080546001600160a01b0319169055518391906001600160a01b038416907fddf252ad1be2c89b69c2b068fc378daa952ba7f163c4a11628f55a4df523b3ef908390a45050565b6060816116355750506040805180820190915260018152600360fc1b602082015290565b8160005b811561165f578061164981611fba565b91506116589050600a83611f28565b9150611639565b60008167ffffffffffffffff81111561168857634e487b7160e01b600052604160045260246000fd5b6040519080825280601f01601f1916602001820160405280156116b2576020820181803683370190505b5090505b8415610cdc576116c7600183611f3c565b91506116d4600a86611fd5565b6116df906030611f10565b60f81b81838151811061170257634e487b7160e01b600052603260045260246000fd5b60200101906001600160f81b031916908160001a905350611724600a86611f28565b94506116b6565b6001600160a01b0382166117815760405162461bcd60e51b815260206004820181905260248201527f4552433732313a206d696e7420746f20746865207a65726f2061646472657373604482015260640161047e565b61178a81610b6f565b156117d75760405162461bcd60e51b815260206004820152601c60248201527f4552433732313a20746f6b656e20616c7265616479206d696e74656400000000604482015260640161047e565b6117e360008383611250565b6001600160a01b038216600090815260036020526040812080546001929061180c908490611f10565b909155505060008181526002602052604080822080546001600160a01b0319166001600160a01b03861690811790915590518392907fddf252ad1be2c89b69c2b068fc378daa952ba7f163c4a11628f55a4df523b3ef908290a45050565b600060016118778461087d565b6118819190611f3c565b6000838152600760205260409020549091508082146118d4576001600160a01b03841660009081526006602090815260408083208584528252808320548484528184208190558352600790915290208190555b5060009182526007602090815260408084208490556001600160a01b039094168352600681528383209183525290812055565b60085460009061191990600190611f3c565b6000838152600960205260408120546008805493945090928490811061194f57634e487b7160e01b600052603260045260246000fd5b90600052602060002001549050806008838154811061197e57634e487b7160e01b600052603260045260246000fd5b60009182526020808320909101929092558281526009909152604080822084905585825281205560088054806119c457634e487b7160e01b600052603160045260246000fd5b6001900381819060005260206000200160009055905550505050565b60006119eb8361087d565b6001600160a01b039093166000908152600660209081526040808320868452825280832085905593825260079052919091209190915550565b828054611a3090611f7f565b90600052602060002090601f016020900481019282611a525760008555611a98565b82601f10611a6b57805160ff1916838001178555611a98565b82800160010185558215611a98579182015b82811115611a98578251825591602001919060010190611a7d565b50611aa4929150611ade565b5090565b508054611ab490611f7f565b6000825580601f10611ac4575050565b601f01602090049060005260206000209081019061076291905b5b80821115611aa45760008155600101611adf565b600067ffffffffffffffff80841115611b0e57611b0e612015565b604051601f8501601f19908116603f01168101908282118183101715611b3657611b36612015565b81604052809350858152868686011115611b4f57600080fd5b858560208301376000602087830101525050509392505050565b80356001600160a01b0381168114611b8057600080fd5b919050565b600060208284031215611b96578081fd5b61097782611b69565b60008060408385031215611bb1578081fd5b611bba83611b69565b9150611bc860208401611b69565b90509250929050565b600080600060608486031215611be5578081fd5b611bee84611b69565b9250611bfc60208501611b69565b9150604084013590509250925092565b60008060008060808587031215611c21578081fd5b611c2a85611b69565b9350611c3860208601611b69565b925060408501359150606085013567ffffffffffffffff811115611c5a578182fd5b8501601f81018713611c6a578182fd5b611c7987823560208401611af3565b91505092959194509250565b60008060408385031215611c97578182fd5b611ca083611b69565b915060208301358015158114611cb4578182fd5b809150509250929050565b60008060408385031215611cd1578182fd5b611cda83611b69565b946020939093013593505050565b600060208284031215611cf9578081fd5b81356109778161202b565b600060208284031215611d15578081fd5b81516109778161202b565b600060208284031215611d31578081fd5b813567ffffffffffffffff811115611d47578182fd5b8201601f81018413611d57578182fd5b610cdc84823560208401611af3565b600060208284031215611d77578081fd5b5035919050565b60008151808452611d96816020860160208601611f53565b601f01601f19169290920160200192915050565b60008351611dbc818460208801611f53565b835190830190611dd0818360208801611f53565b01949350505050565b6001600160a01b0385811682528416602082015260408101839052608060608201819052600090611e0c90830184611d7e565b9695505050505050565b6020808252825182820181905260009190848201906040850190845b81811015611e4e57835183529284019291840191600101611e32565b50909695505050505050565b6020815260006109776020830184611d7e565b60208082526032908201527f4552433732313a207472616e7366657220746f206e6f6e20455243373231526560408201527131b2b4bb32b91034b6b83632b6b2b73a32b960711b606082015260800190565b60208082526031908201527f4552433732313a207472616e736665722063616c6c6572206973206e6f74206f6040820152701ddb995c881b9bdc88185c1c1c9bdd9959607a1b606082015260800190565b60008219821115611f2357611f23611fe9565b500190565b600082611f3757611f37611fff565b500490565b600082821015611f4e57611f4e611fe9565b500390565b60005b83811015611f6e578181015183820152602001611f56565b838111156109ce5750506000910152565b600181811c90821680611f9357607f821691505b60208210811415611fb457634e487b7160e01b600052602260045260246000fd5b50919050565b6000600019821415611fce57611fce611fe9565b5060010190565b600082611fe457611fe4611fff565b500690565b634e487b7160e01b600052601160045260246000fd5b634e487b7160e01b600052601260045260246000fd5b634e487b7160e01b600052604160045260246000fd5b6001600160e01b03198116811461076257600080fdfea2646970667358221220113d62f236dd1c0d49df05812be5bd08d48ed033f55799107c7f96812d1e90fb64736f6c63430008040033",
  "linkReferences": {},
  "deployedLinkReferences": {}
}