{
  "_format": "hh-sol-artifact-1",
  "contractName": "HaikoinToken",
  "sourceName": "contracts/HaikoinToken.sol",
  "abi": [
    {
      "inputs": [],
      "stateMutability": "nonpayable",
      "type": "constructor"
    },
    {
      "anonymous": false,
      "inputs": [
        {
          "indexed": true,
          "internalType": "address",
          "name": "owner",
          "type": "address"
        },
        {
          "indexed": true,
          "internalType": "address",
          "name": "approved",
          "type": "address"
        },
        {
          "indexed": true,
          "internalType": "uint256",
          "name": "tokenId",
          "type": "uint256"
        }
      ],
      "name": "Approval",
      "type": "event"
    },
    {
      "anonymous": false,
      "inputs": [
        {
          "indexed": true,
          "internalType": "address",
          "name": "owner",
          "type": "address"
        },
        {
          "indexed": true,
          "internalType": "address",
          "name": "operator",
          "type": "address"
        },
        {
          "indexed": false,
          "internalType": "bool",
          "name": "approved",
          "type": "bool"
        }
      ],
      "name": "ApprovalForAll",
      "type": "event"
    },
    {
      "anonymous": false,
      "inputs": [
        {
          "indexed": true,
          "internalType": "address",
          "name": "previousOwner",
          "type": "address"
        },
        {
          "indexed": true,
          "internalType": "address",
          "name": "newOwner",
          "type": "address"
        }
      ],
      "name": "OwnershipTransferred",
      "type": "event"
    },
    {
      "anonymous": false,
      "inputs": [
        {
          "indexed": true,
          "internalType": "address",
          "name": "from",
          "type": "address"
        },
        {
          "indexed": true,
          "internalType": "address",
          "name": "to",
          "type": "address"
        },
        {
          "indexed": true,
          "internalType": "uint256",
          "name": "tokenId",
          "type": "uint256"
        }
      ],
      "name": "Transfer",
      "type": "event"
    },
    {
      "inputs": [
        {
          "internalType": "address",
          "name": "to",
          "type": "address"
        },
        {
          "internalType": "uint256",
          "name": "tokenId",
          "type": "uint256"
        }
      ],
      "name": "approve",
      "outputs": [],
      "stateMutability": "nonpayable",
      "type": "function"
    },
    {
      "inputs": [
        {
          "internalType": "address",
          "name": "owner",
          "type": "address"
        }
      ],
      "name": "balanceOf",
      "outputs": [
        {
          "internalType": "uint256",
          "name": "",
          "type": "uint256"
        }
      ],
      "stateMutability": "view",
      "type": "function"
    },
    {
      "inputs": [
        {
          "internalType": "uint256",
          "name": "tokenId",
          "type": "uint256"
        }
      ],
      "name": "burnHaikoin",
      "outputs": [],
      "stateMutability": "nonpayable",
      "type": "function"
    },
    {
      "inputs": [
        {
          "internalType": "address",
          "name": "_owner",
          "type": "address"
        }
      ],
      "name": "fetchHaikoinsOwned",
      "outputs": [
        {
          "internalType": "string[]",
          "name": "",
          "type": "string[]"
        }
      ],
      "stateMutability": "view",
      "type": "function"
    },
    {
      "inputs": [
        {
          "internalType": "uint256",
          "name": "tokenId",
          "type": "uint256"
        }
      ],
      "name": "getApproved",
      "outputs": [
        {
          "internalType": "address",
          "name": "",
          "type": "address"
        }
      ],
      "stateMutability": "view",
      "type": "function"
    },
    {
      "inputs": [
        {
          "internalType": "address",
          "name": "owner",
          "type": "address"
        },
        {
          "internalType": "address",
          "name": "operator",
          "type": "address"
        }
      ],
      "name": "isApprovedForAll",
      "outputs": [
        {
          "internalType": "bool",
          "name": "",
          "type": "bool"
        }
      ],
      "stateMutability": "view",
      "type": "function"
    },
    {
      "inputs": [
        {
          "internalType": "string",
          "name": "ipfsURI",
          "type": "string"
        }
      ],
      "name": "mintHaikoin",
      "outputs": [],
      "stateMutability": "payable",
      "type": "function"
    },
    {
      "inputs": [],
      "name": "name",
      "outputs": [
        {
          "internalType": "string",
          "name": "",
          "type": "string"
        }
      ],
      "stateMutability": "view",
      "type": "function"
    },
    {
      "inputs": [],
      "name": "owner",
      "outputs": [
        {
          "internalType": "address",
          "name": "",
          "type": "address"
        }
      ],
      "stateMutability": "view",
      "type": "function"
    },
    {
      "inputs": [
        {
          "internalType": "uint256",
          "name": "tokenId",
          "type": "uint256"
        }
      ],
      "name": "ownerOf",
      "outputs": [
        {
          "internalType": "address",
          "name": "",
          "type": "address"
        }
      ],
      "stateMutability": "view",
      "type": "function"
    },
    {
      "inputs": [],
      "name": "renounceOwnership",
      "outputs": [],
      "stateMutability": "nonpayable",
      "type": "function"
    },
    {
      "inputs": [
        {
          "internalType": "address",
          "name": "from",
          "type": "address"
        },
        {
          "internalType": "address",
          "name": "to",
          "type": "address"
        },
        {
          "internalType": "uint256",
          "name": "tokenId",
          "type": "uint256"
        }
      ],
      "name": "safeTransferFrom",
      "outputs": [],
      "stateMutability": "nonpayable",
      "type": "function"
    },
    {
      "inputs": [
        {
          "internalType": "address",
          "name": "from",
          "type": "address"
        },
        {
          "internalType": "address",
          "name": "to",
          "type": "address"
        },
        {
          "internalType": "uint256",
          "name": "tokenId",
          "type": "uint256"
        },
        {
          "internalType": "bytes",
          "name": "_data",
          "type": "bytes"
        }
      ],
      "name": "safeTransferFrom",
      "outputs": [],
      "stateMutability": "nonpayable",
      "type": "function"
    },
    {
      "inputs": [
        {
          "internalType": "address",
          "name": "operator",
          "type": "address"
        },
        {
          "internalType": "bool",
          "name": "approved",
          "type": "bool"
        }
      ],
      "name": "setApprovalForAll",
      "outputs": [],
      "stateMutability": "nonpayable",
      "type": "function"
    },
    {
      "inputs": [
        {
          "internalType": "bytes4",
          "name": "interfaceId",
          "type": "bytes4"
        }
      ],
      "name": "supportsInterface",
      "outputs": [
        {
          "internalType": "bool",
          "name": "",
          "type": "bool"
        }
      ],
      "stateMutability": "view",
      "type": "function"
    },
    {
      "inputs": [],
      "name": "symbol",
      "outputs": [
        {
          "internalType": "string",
          "name": "",
          "type": "string"
        }
      ],
      "stateMutability": "view",
      "type": "function"
    },
    {
      "inputs": [
        {
          "internalType": "uint256",
          "name": "index",
          "type": "uint256"
        }
      ],
      "name": "tokenByIndex",
      "outputs": [
        {
          "internalType": "uint256",
          "name": "",
          "type": "uint256"
        }
      ],
      "stateMutability": "view",
      "type": "function"
    },
    {
      "inputs": [
        {
          "internalType": "address",
          "name": "owner",
          "type": "address"
        },
        {
          "internalType": "uint256",
          "name": "index",
          "type": "uint256"
        }
      ],
      "name": "tokenOfOwnerByIndex",
      "outputs": [
        {
          "internalType": "uint256",
          "name": "",
          "type": "uint256"
        }
      ],
      "stateMutability": "view",
      "type": "function"
    },
    {
      "inputs": [
        {
          "internalType": "uint256",
          "name": "tokenId",
          "type": "uint256"
        }
      ],
      "name": "tokenURI",
      "outputs": [
        {
          "internalType": "string",
          "name": "",
          "type": "string"
        }
      ],
      "stateMutability": "view",
      "type": "function"
    },
    {
      "inputs": [],
      "name": "totalSupply",
      "outputs": [
        {
          "internalType": "uint256",
          "name": "",
          "type": "uint256"
        }
      ],
      "stateMutability": "view",
      "type": "function"
    },
    {
      "inputs": [
        {
          "internalType": "address",
          "name": "from",
          "type": "address"
        },
        {
          "internalType": "address",
          "name": "to",
          "type": "address"
        },
        {
          "internalType": "uint256",
          "name": "tokenId",
          "type": "uint256"
        }
      ],
      "name": "transferFrom",
      "outputs": [],
      "stateMutability": "nonpayable",
      "type": "function"
    },
    {
      "inputs": [
        {
          "internalType": "address",
          "name": "from",
          "type": "address"
        },
        {
          "internalType": "address",
          "name": "to",
          "type": "address"
        },
        {
          "internalType": "uint256",
          "name": "tokenId",
          "type": "uint256"
        }
      ],
      "name": "transferHaikoin",
      "outputs": [],
      "stateMutability": "nonpayable",
      "type": "function"
    },
    {
      "inputs": [
        {
          "internalType": "address",
          "name": "newOwner",
          "type": "address"
        }
      ],
      "name": "transferOwnership",
      "outputs": [],
      "stateMutability": "nonpayable",
      "type": "function"
    }
  ],
  "bytecode": "0x60806040523480156200001157600080fd5b5060408051808201825260088152674861696b6f696e7360c01b6020808301918252835180850190945260048452634841494b60e01b9084015281519192916200005e91600091620000ed565b50805162000074906001906020840190620000ed565b505050620000916200008b6200009760201b60201c565b6200009b565b620001d0565b3390565b600b80546001600160a01b038381166001600160a01b0319831681179093556040519116919082907f8be0079c531659141344cd1fd0a4f28419497f9722a3daafe3b4186f6b6457e090600090a35050565b828054620000fb9062000193565b90600052602060002090601f0160209004810192826200011f57600085556200016a565b82601f106200013a57805160ff19168380011785556200016a565b828001600101855582156200016a579182015b828111156200016a5782518255916020019190600101906200014d565b50620001789291506200017c565b5090565b5b808211156200017857600081556001016200017d565b600181811c90821680620001a857607f821691505b60208210811415620001ca57634e487b7160e01b600052602260045260246000fd5b50919050565b61218280620001e06000396000f3fe6080604052600436106101405760003560e01c80634ff711ac116100b6578063a22cb4651161006f578063a22cb4651461037d578063b1cfe5ca1461039d578063b88d4fde146103bd578063c87b56dd146103dd578063e985e9c5146103fd578063f2fde38b1461044657600080fd5b80634ff711ac146102d55780636352211e146102f557806370a0823114610315578063715018a6146103355780638da5cb5b1461034a57806395d89b411461036857600080fd5b806318160ddd1161010857806318160ddd1461020957806323b872dd146102285780632f745c59146102485780632f75d98d1461026857806342842e0e146102955780634f6ccce7146102b557600080fd5b806301ffc9a71461014557806306fdde031461017a578063081812fc1461019c578063095ea7b3146101d4578063147d74b2146101f6575b600080fd5b34801561015157600080fd5b50610165610160366004611dd6565b610466565b60405190151581526020015b60405180910390f35b34801561018657600080fd5b5061018f610477565b6040516101719190611f65565b3480156101a857600080fd5b506101bc6101b7366004611e54565b610509565b6040516001600160a01b039091168152602001610171565b3480156101e057600080fd5b506101f46101ef366004611dad565b610596565b005b6101f4610204366004611e0e565b6106ac565b34801561021557600080fd5b506009545b604051908152602001610171565b34801561023457600080fd5b506101f4610243366004611cbf565b6106df565b34801561025457600080fd5b5061021a610263366004611dad565b610710565b34801561027457600080fd5b50610288610283366004611c73565b6107a6565b6040516101719190611f04565b3480156102a157600080fd5b506101f46102b0366004611cbf565b610872565b3480156102c157600080fd5b5061021a6102d0366004611e54565b61088d565b3480156102e157600080fd5b506101f46102f0366004611e54565b61092e565b34801561030157600080fd5b506101bc610310366004611e54565b61093a565b34801561032157600080fd5b5061021a610330366004611c73565b6109b1565b34801561034157600080fd5b506101f4610a38565b34801561035657600080fd5b50600b546001600160a01b03166101bc565b34801561037457600080fd5b5061018f610a9e565b34801561038957600080fd5b506101f4610398366004611d73565b610aad565b3480156103a957600080fd5b506101f46103b8366004611cbf565b610ab8565b3480156103c957600080fd5b506101f46103d8366004611cfa565b610b2c565b3480156103e957600080fd5b5061018f6103f8366004611e54565b610b64565b34801561040957600080fd5b50610165610418366004611c8d565b6001600160a01b03918216600090815260056020908152604080832093909416825291909152205460ff1690565b34801561045257600080fd5b506101f4610461366004611c73565b610b6f565b600061047182610c37565b92915050565b6060600080546104869061208a565b80601f01602080910402602001604051908101604052809291908181526020018280546104b29061208a565b80156104ff5780601f106104d4576101008083540402835291602001916104ff565b820191906000526020600020905b8154815290600101906020018083116104e257829003601f168201915b5050505050905090565b600061051482610c5c565b61057a5760405162461bcd60e51b815260206004820152602c60248201527f4552433732313a20617070726f76656420717565727920666f72206e6f6e657860448201526b34b9ba32b73a103a37b5b2b760a11b60648201526084015b60405180910390fd5b506000908152600460205260409020546001600160a01b031690565b60006105a18261093a565b9050806001600160a01b0316836001600160a01b0316141561060f5760405162461bcd60e51b815260206004820152602160248201527f4552433732313a20617070726f76616c20746f2063757272656e74206f776e656044820152603960f91b6064820152608401610571565b336001600160a01b038216148061062b575061062b8133610418565b61069d5760405162461bcd60e51b815260206004820152603860248201527f4552433732313a20617070726f76652063616c6c6572206973206e6f74206f7760448201527f6e6572206e6f7220617070726f76656420666f7220616c6c00000000000000006064820152608401610571565b6106a78383610c79565b505050565b6106ba600c80546001019055565b60006106c5600c5490565b90506106d13382610ce7565b6106db8183610d01565b5050565b6106e93382610d8c565b6107055760405162461bcd60e51b815260040161057190611fca565b6106a7838383610e76565b600061071b836109b1565b821061077d5760405162461bcd60e51b815260206004820152602b60248201527f455243373231456e756d657261626c653a206f776e657220696e646578206f7560448201526a74206f6620626f756e647360a81b6064820152608401610571565b506001600160a01b03919091166000908152600760209081526040808320938352929052205490565b606060006107b3836109b1565b905060008167ffffffffffffffff8111156107de57634e487b7160e01b600052604160045260246000fd5b60405190808252806020026020018201604052801561081157816020015b60608152602001906001900390816107fc5790505b50905060005b8281101561086a5761082c6103f88683610710565b82828151811061084c57634e487b7160e01b600052603260045260246000fd5b60200260200101819052508080610862906120c5565b915050610817565b509392505050565b6106a783838360405180602001604052806000815250610b2c565b600061089860095490565b82106108fb5760405162461bcd60e51b815260206004820152602c60248201527f455243373231456e756d657261626c653a20676c6f62616c20696e646578206f60448201526b7574206f6620626f756e647360a01b6064820152608401610571565b6009828154811061091c57634e487b7160e01b600052603260045260246000fd5b90600052602060002001549050919050565b61093781611021565b50565b6000818152600260205260408120546001600160a01b0316806104715760405162461bcd60e51b815260206004820152602960248201527f4552433732313a206f776e657220717565727920666f72206e6f6e657869737460448201526832b73a103a37b5b2b760b91b6064820152608401610571565b60006001600160a01b038216610a1c5760405162461bcd60e51b815260206004820152602a60248201527f4552433732313a2062616c616e636520717565727920666f7220746865207a65604482015269726f206164647265737360b01b6064820152608401610571565b506001600160a01b031660009081526003602052604090205490565b600b546001600160a01b03163314610a925760405162461bcd60e51b815260206004820181905260248201527f4f776e61626c653a2063616c6c6572206973206e6f7420746865206f776e65726044820152606401610571565b610a9c600061102a565b565b6060600180546104869061208a565b6106db33838361107c565b826001600160a01b0316610acb8261093a565b6001600160a01b031614610b215760405162461bcd60e51b815260206004820181905260248201527f46726f6d2061646472657373206d75737420626520746f6b656e206f776e65726044820152606401610571565b6106a7838383610872565b610b363383610d8c565b610b525760405162461bcd60e51b815260040161057190611fca565b610b5e8484848461114b565b50505050565b60606104718261117e565b600b546001600160a01b03163314610bc95760405162461bcd60e51b815260206004820181905260248201527f4f776e61626c653a2063616c6c6572206973206e6f7420746865206f776e65726044820152606401610571565b6001600160a01b038116610c2e5760405162461bcd60e51b815260206004820152602660248201527f4f776e61626c653a206e6577206f776e657220697320746865207a65726f206160448201526564647265737360d01b6064820152608401610571565b6109378161102a565b60006001600160e01b0319821663780e9d6360e01b14806104715750610471826112ed565b6000908152600260205260409020546001600160a01b0316151590565b600081815260046020526040902080546001600160a01b0319166001600160a01b0384169081179091558190610cae8261093a565b6001600160a01b03167f8c5be1e5ebec7d5bd14f71427d1e84f3dd0314c0f7b2291e5b200ac8c7c3b92560405160405180910390a45050565b6106db82826040518060200160405280600081525061133d565b610d0a82610c5c565b610d6d5760405162461bcd60e51b815260206004820152602e60248201527f45524337323155524953746f726167653a2055524920736574206f66206e6f6e60448201526d32bc34b9ba32b73a103a37b5b2b760911b6064820152608401610571565b600082815260066020908152604090912082516106a792840190611b12565b6000610d9782610c5c565b610df85760405162461bcd60e51b815260206004820152602c60248201527f4552433732313a206f70657261746f7220717565727920666f72206e6f6e657860448201526b34b9ba32b73a103a37b5b2b760a11b6064820152608401610571565b6000610e038361093a565b9050806001600160a01b0316846001600160a01b03161480610e3e5750836001600160a01b0316610e3384610509565b6001600160a01b0316145b80610e6e57506001600160a01b0380821660009081526005602090815260408083209388168352929052205460ff165b949350505050565b826001600160a01b0316610e898261093a565b6001600160a01b031614610ef15760405162461bcd60e51b815260206004820152602960248201527f4552433732313a207472616e73666572206f6620746f6b656e2074686174206960448201526839903737ba1037bbb760b91b6064820152608401610571565b6001600160a01b038216610f535760405162461bcd60e51b8152602060048201526024808201527f4552433732313a207472616e7366657220746f20746865207a65726f206164646044820152637265737360e01b6064820152608401610571565b610f5e838383611370565b610f69600082610c79565b6001600160a01b0383166000908152600360205260408120805460019290610f92908490612047565b90915550506001600160a01b0382166000908152600360205260408120805460019290610fc090849061201b565b909155505060008181526002602052604080822080546001600160a01b0319166001600160a01b0386811691821790925591518493918716917fddf252ad1be2c89b69c2b068fc378daa952ba7f163c4a11628f55a4df523b3ef91a4505050565b6109378161137b565b600b80546001600160a01b038381166001600160a01b0319831681179093556040519116919082907f8be0079c531659141344cd1fd0a4f28419497f9722a3daafe3b4186f6b6457e090600090a35050565b816001600160a01b0316836001600160a01b031614156110de5760405162461bcd60e51b815260206004820152601960248201527f4552433732313a20617070726f766520746f2063616c6c6572000000000000006044820152606401610571565b6001600160a01b03838116600081815260056020908152604080832094871680845294825291829020805460ff191686151590811790915591519182527f17307eab39ab6107e8899845ad3d59bd9653f200f220920489ca2b5937696c31910160405180910390a3505050565b611156848484610e76565b611162848484846113bb565b610b5e5760405162461bcd60e51b815260040161057190611f78565b606061118982610c5c565b6111ef5760405162461bcd60e51b815260206004820152603160248201527f45524337323155524953746f726167653a2055524920717565727920666f72206044820152703737b732bc34b9ba32b73a103a37b5b2b760791b6064820152608401610571565b600082815260066020526040812080546112089061208a565b80601f01602080910402602001604051908101604052809291908181526020018280546112349061208a565b80156112815780601f1061125657610100808354040283529160200191611281565b820191906000526020600020905b81548152906001019060200180831161126457829003601f168201915b50505050509050600061129f60408051602081019091526000815290565b90508051600014156112b2575092915050565b8151156112e45780826040516020016112cc929190611e98565b60405160208183030381529060405292505050919050565b610e6e846114c8565b60006001600160e01b031982166380ac58cd60e01b148061131e57506001600160e01b03198216635b5e139f60e01b145b8061047157506301ffc9a760e01b6001600160e01b0319831614610471565b61134783836115a0565b61135460008484846113bb565b6106a75760405162461bcd60e51b815260040161057190611f78565b6106a78383836116df565b61138481611797565b6000818152600660205260409020805461139d9061208a565b15905061093757600081815260066020526040812061093791611b96565b60006001600160a01b0384163b156114bd57604051630a85bd0160e11b81526001600160a01b0385169063150b7a02906113ff903390899088908890600401611ec7565b602060405180830381600087803b15801561141957600080fd5b505af1925050508015611449575060408051601f3d908101601f1916820190925261144691810190611df2565b60015b6114a3573d808015611477576040519150601f19603f3d011682016040523d82523d6000602084013e61147c565b606091505b50805161149b5760405162461bcd60e51b815260040161057190611f78565b805181602001fd5b6001600160e01b031916630a85bd0160e11b149050610e6e565b506001949350505050565b60606114d382610c5c565b6115375760405162461bcd60e51b815260206004820152602f60248201527f4552433732314d657461646174613a2055524920717565727920666f72206e6f60448201526e3732bc34b9ba32b73a103a37b5b2b760891b6064820152608401610571565b600061154e60408051602081019091526000815290565b9050600081511161156e5760405180602001604052806000815250611599565b806115788461183e565b604051602001611589929190611e98565b6040516020818303038152906040525b9392505050565b6001600160a01b0382166115f65760405162461bcd60e51b815260206004820181905260248201527f4552433732313a206d696e7420746f20746865207a65726f20616464726573736044820152606401610571565b6115ff81610c5c565b1561164c5760405162461bcd60e51b815260206004820152601c60248201527f4552433732313a20746f6b656e20616c7265616479206d696e746564000000006044820152606401610571565b61165860008383611370565b6001600160a01b038216600090815260036020526040812080546001929061168190849061201b565b909155505060008181526002602052604080822080546001600160a01b0319166001600160a01b03861690811790915590518392907fddf252ad1be2c89b69c2b068fc378daa952ba7f163c4a11628f55a4df523b3ef908290a45050565b6001600160a01b03831661173a5761173581600980546000838152600a60205260408120829055600182018355919091527f6e1540171b6c0c960b71a7020d9f60077f6af931a8bbf590da0223dacf75c7af0155565b61175d565b816001600160a01b0316836001600160a01b03161461175d5761175d8382611958565b6001600160a01b038216611774576106a7816119f5565b826001600160a01b0316826001600160a01b0316146106a7576106a78282611ace565b60006117a28261093a565b90506117b081600084611370565b6117bb600083610c79565b6001600160a01b03811660009081526003602052604081208054600192906117e4908490612047565b909155505060008281526002602052604080822080546001600160a01b0319169055518391906001600160a01b038416907fddf252ad1be2c89b69c2b068fc378daa952ba7f163c4a11628f55a4df523b3ef908390a45050565b6060816118625750506040805180820190915260018152600360fc1b602082015290565b8160005b811561188c5780611876816120c5565b91506118859050600a83612033565b9150611866565b60008167ffffffffffffffff8111156118b557634e487b7160e01b600052604160045260246000fd5b6040519080825280601f01601f1916602001820160405280156118df576020820181803683370190505b5090505b8415610e6e576118f4600183612047565b9150611901600a866120e0565b61190c90603061201b565b60f81b81838151811061192f57634e487b7160e01b600052603260045260246000fd5b60200101906001600160f81b031916908160001a905350611951600a86612033565b94506118e3565b60006001611965846109b1565b61196f9190612047565b6000838152600860205260409020549091508082146119c2576001600160a01b03841660009081526007602090815260408083208584528252808320548484528184208190558352600890915290208190555b5060009182526008602090815260408084208490556001600160a01b039094168352600781528383209183525290812055565b600954600090611a0790600190612047565b6000838152600a602052604081205460098054939450909284908110611a3d57634e487b7160e01b600052603260045260246000fd5b906000526020600020015490508060098381548110611a6c57634e487b7160e01b600052603260045260246000fd5b6000918252602080832090910192909255828152600a90915260408082208490558582528120556009805480611ab257634e487b7160e01b600052603160045260246000fd5b6001900381819060005260206000200160009055905550505050565b6000611ad9836109b1565b6001600160a01b039093166000908152600760209081526040808320868452825280832085905593825260089052919091209190915550565b828054611b1e9061208a565b90600052602060002090601f016020900481019282611b405760008555611b86565b82601f10611b5957805160ff1916838001178555611b86565b82800160010185558215611b86579182015b82811115611b86578251825591602001919060010190611b6b565b50611b92929150611bcc565b5090565b508054611ba29061208a565b6000825580601f10611bb2575050565b601f01602090049060005260206000209081019061093791905b5b80821115611b925760008155600101611bcd565b600067ffffffffffffffff80841115611bfc57611bfc612120565b604051601f8501601f19908116603f01168101908282118183101715611c2457611c24612120565b81604052809350858152868686011115611c3d57600080fd5b858560208301376000602087830101525050509392505050565b80356001600160a01b0381168114611c6e57600080fd5b919050565b600060208284031215611c84578081fd5b61159982611c57565b60008060408385031215611c9f578081fd5b611ca883611c57565b9150611cb660208401611c57565b90509250929050565b600080600060608486031215611cd3578081fd5b611cdc84611c57565b9250611cea60208501611c57565b9150604084013590509250925092565b60008060008060808587031215611d0f578081fd5b611d1885611c57565b9350611d2660208601611c57565b925060408501359150606085013567ffffffffffffffff811115611d48578182fd5b8501601f81018713611d58578182fd5b611d6787823560208401611be1565b91505092959194509250565b60008060408385031215611d85578182fd5b611d8e83611c57565b915060208301358015158114611da2578182fd5b809150509250929050565b60008060408385031215611dbf578182fd5b611dc883611c57565b946020939093013593505050565b600060208284031215611de7578081fd5b813561159981612136565b600060208284031215611e03578081fd5b815161159981612136565b600060208284031215611e1f578081fd5b813567ffffffffffffffff811115611e35578182fd5b8201601f81018413611e45578182fd5b610e6e84823560208401611be1565b600060208284031215611e65578081fd5b5035919050565b60008151808452611e8481602086016020860161205e565b601f01601f19169290920160200192915050565b60008351611eaa81846020880161205e565b835190830190611ebe81836020880161205e565b01949350505050565b6001600160a01b0385811682528416602082015260408101839052608060608201819052600090611efa90830184611e6c565b9695505050505050565b6000602080830181845280855180835260408601915060408160051b8701019250838701855b82811015611f5857603f19888603018452611f46858351611e6c565b94509285019290850190600101611f2a565b5092979650505050505050565b6020815260006115996020830184611e6c565b60208082526032908201527f4552433732313a207472616e7366657220746f206e6f6e20455243373231526560408201527131b2b4bb32b91034b6b83632b6b2b73a32b960711b606082015260800190565b60208082526031908201527f4552433732313a207472616e736665722063616c6c6572206973206e6f74206f6040820152701ddb995c881b9bdc88185c1c1c9bdd9959607a1b606082015260800190565b6000821982111561202e5761202e6120f4565b500190565b6000826120425761204261210a565b500490565b600082821015612059576120596120f4565b500390565b60005b83811015612079578181015183820152602001612061565b83811115610b5e5750506000910152565b600181811c9082168061209e57607f821691505b602082108114156120bf57634e487b7160e01b600052602260045260246000fd5b50919050565b60006000198214156120d9576120d96120f4565b5060010190565b6000826120ef576120ef61210a565b500690565b634e487b7160e01b600052601160045260246000fd5b634e487b7160e01b600052601260045260246000fd5b634e487b7160e01b600052604160045260246000fd5b6001600160e01b03198116811461093757600080fdfea26469706673582212208c4c7235e4ec230b514de6ee0ffb2049fab6542aac1bdf44163b932771d9caee64736f6c63430008040033",
  "linkReferences": {},
  "deployedLinkReferences": {}
}